:020000040000fa
:080000000002040000000000f2
:020000040000fa
:1000080090020000900200009002000090020000a0
:100018009002000090020000900200009002000090
:100028009002000090020000900200009002000080
:100038009002000090020000900200009002000070
:020000040000fa
:020000040000fa
:100400000f8220000eff20000e0188000000000077
:100410000c00070080b92000010020001100070037
:10042000000020000000e000020032000000020096
:100430000000000094020200000000000040da000a
:100440000000fe004440a900000020000000e00081
:100450000300320000002000a00188004440a800f2
:100460000000060091018800800078000000eb0089
:1004700015003700e280400032a0b4009101ba00bc
:10048000e280400032a0b4009102ba00e280400055
:1004900032a0b4000002eb00472bde00f507b200eb
:1004a000602ce10004003a000059eb008301e900f0
:1004b000fdff3e00040037006128e100010032002a
:1004c0000082eb00040007001101ba000200e00006
:1004d000e8ff3a00000006003159ba008301e90044
:1004e0000c0032002159ba008301e90008003200f3
:1004f0000400e00003003a00e280400032a0b400b3
:10050000f5ff370011d9ba008301e900faff3a007c
:100510008100e800e180400032a0b4000000060045
:080520000040da000000fe00bb
:020000040000fa
:100528000000fa00160007007b0007009102070090
:10053800a0408000a1292000810f500004003e0047
:10054800b1142000810f500007003100040037006b
:10055800f13f2000810f500007003e0004003700e3
:1005680007010700040037001b01070002003700dd
:100578005c010700000000000080fa00000006008f
:100588000000fa000421a9002108800000032000cf
:1005980000807000200888002003200010088800d0
:1005a8000000eb00000888008460a90005e1a800ad
:1005b800cc22a900c822a900ccc2a900c8c2a9009f
:1005c800cc02a900c802a900cd02a900c902a9004d
:1005d800cd22a900c922a800cca2a900c8a2a900be
:1005e800c482a900c082a900e284a800e044a8004f
:1005f800e244a800e024a800e004a800e264a800ff
:100608000000eb00001a880050002000401a880003
:100618000000eb00801a880020f02100201a8800d2
:100628000000eb00101a880041e3a800c942a900a5
:10063800cd42a900c9e2a900cde2a900c9c2a9001a
:10064800cdc2a800210d800080ff2f00008060002f
:10065800200d88000000eb00500d8800210d80005f
:10066800f03f2e0000806000200d8800210d8000e2
:1006780080ff2f00008060006000b300200d88001c
:10068800c962a900cd62a900c9a2a900cda2a9008a
:10069800c982a900cd82a800d10c800080ff2f005c
:1006a80000806000d00c88000000eb00000d88007e
:1006b800d10c8000f03f2e0000806000d00c880034
:1006c800d10c800080ff2f00008060006000b30024
:1006d800d00c880011e1a9001021a90010c1a900bf
:1006e80081088000f0fc2f0080806000000220005c
:1006f80000807000800888000000eb003008880047
:10070800004020006008880084e0a90011e1a800ea
:100718000080fa00000006000000fa0050002000e7
:10072800401a88004023a80050002000f00307006a
:100738004023a90000000000001a8000610060004a
:10074800e00f5000fcff320000188000a040880035
:1007580040002000401a88004023a80050002000d4
:10076800e30307004023a90000000000001a8000ee
:1007780061006000e00f5000fcff320000188000ac
:10078800c0408800f0002000401a88004023a800dc
:1007980050002000d60307004023a90000000000f5
:1007a800001a800061006000e00f5000fcff32007a
:1007b80000188000b040880010002000401a88000f
:1007c8004023a80050002000c90307004023a900c7
:1007d80000000000001a800061006000e00f500077
:1007e800fcff320000188000e0408800d0002000a4
:1007f800401a88004023a80050002000bc030700ce
:100808004023a90000000000001a80006100600079
:10081800e00f5000fcff320000188000d040880034
:100828000000eb00401a88004023a8005000200078
:10083800af0307004023a90000000000001a800051
:1008480061006000e00f5000fcff320000188000db
:10085800f04088000080fa00000006000000fa005e
:10086800c140800010408000808f5000020031009d
:10087800cc22a80001003700cc22a900b14080009a
:1008880000408000808f500002003100ccc2a800d8
:1008980001003700ccc2a900d14080002040800070
:1008a800808f500002003100cd02a80001003700ff
:1008b800cd02a900e140800030408000808f5000c8
:1008c80002003100cc02a80001003700cc02a900c8
:1008d8000080fa00000006000000fa004040800096
:1008e800e00f50000300320040408000e20f50004b
:1008f80003003a00803e2000fa0107001500370087
:1009080040408000e10f500003003200404080006a
:10091800e30f500003003a00803e20000c0207005d
:100928000c00370040408000e40f500009003a00f6
:100938000000eb00000d88000000eb00500d88005f
:100948008001eb000001eb008000eb000000eb00f1
:10095800970107000080fa00000006000000fa0076
:10096800000000002004800068006000e00f5000d4
:10097800fcff32008460a9000080fa000000060035
:100988000000fa009402070063ff0700404080005f
:10099800e00f50000300320040408000e20f50009a
:1009a80002003a00ba020700070037004040800002
:1009b800e10f50000300320040408000e30f500078
:1009c80001003a00c4020700a4ff0700c2ff0700a5
:1009d800e2ff0700ecff37000000fa007e02070084
:1009e8000500370000000000030037000000000089
:1009f800010037000000000047ff070097ff0700cd
:100a080070408000e00f50000d003a00903d20003b
:100a1800b4010700b140800000408000808f500082
:100a2800f0ff3100c140800010408000808f5000ee
:100a3800eeff31001000200070408800eeff370004
:100a480070408000e10f500002003a00b402070035
:100a5800e9ff370070408000e20f500004003a00c0
:100a6800f03f2000ba0107009b020700e2ff3700b1
:100a780070408000e30f500003003a00f03f200070
:100a880038020700dcff370070408000e40f500098
:100a980003003a00803e2000dc020700d6ff370042
:100aa80070408000e50f500003003a00f03f20003e
:100ab8000f020700d0ff3700504080000000e80018
:100ac800504088000000eb007040880050408000d3
:100ad800e20f5000c7ff3a00000000000080fa0053
:100ae800000006000000fa003b020700190037006a
:100af8000000000017003700000000001500370054
:100b0800000000001300370000000000110037004b
:100b1800000000000f003700000000000d00370043
:100b2800000000000b00370000000000090037003b
:100b38000000000007003700000000000500370033
:100b4800000000000300370000000000010037002b
:100b580000000000f0fe070040ff07007040800022
:100b6800e00f500016003a00003220005d01070037
:100b7800b140800000408000808f5000dcff3100d1
:100b8800c140800010408000808f5000daff3100a3
:100b98000000eb00000d88000000eb00500d8800fd
:100ba8008001eb000001eb008000eb000000eb008f
:100bb800ff0007001000200070408800e5ff3700a4
:100bc80070408000e10f500004003a005402070012
:100bd8002000200070408800deff37007040800051
:100be800e20f500004003a0097020700300020008e
:100bf80070408800d7ff370070408000e30f500036
:100c08002d003a0090408000e10f50000c003a009f
:100c1800f03f20009c01070040382000b402070084
:100c28008001eb000001eb008000eb000000eb000e
:100c3800df0007004000200070408800c5ff370033
:100c480090408000e20f500003003a00400020006e
:100c580070408800bfff370090408000e30f5000cd
:100c6800a7ff3a00c140800010408000808f5000ec
:100c78000c003100f03f20009001070040382000b0
:100c88009b0207008001eb000001eb008000eb00f5
:100c98000000eb00c60007004000200070408800fc
:100ca800acff3700f03f2000ae01070040002000f5
:100cb80070408800a7ff370070408000e40f5000a4
:100cc80016003a004038200006010700b1408000b5
:100cd80000408000808f50008bff3100c1408000b1
:100ce80010408000808f500089ff31000000eb0029
:100cf800000d88000000eb00500d88008001eb001b
:100d08000001eb008000eb000000eb00a8000700ea
:100d180050002000704088008eff3700704080002f
:100d2800e50f500006003a00c2010700803e20008f
:100d380036020700600020007040880085ff3700f9
:100d480070408000e60f500016003a00403820003e
:100d5800ff000700d140800020408000808f5000b5
:100d68006dff3100e140800030408000808f5000ee
:100d78006bff31000000eb00000d88000000eb0065
:100d8800500d88008001eb000001eb008000eb00b3
:100d98000000eb008600070070002000704088000b
:100da8006cff370070408000e70f500004003a00e5
:100db800a0010700800020007040880065ff370010
:100dc80070408000e80f500024003a0090408000f6
:100dd800e10f50000c003a00f03f200037010700f7
:100de80020352000420207008001eb000001eb00e3
:100df8008000eb000000eb006d0007009000200071
:100e08007040880053ff370090408000e20f500088
:100e180003003a0090002000704088004dff370022
:100e280090408000e30f50003fff3a00f03f200061
:100e380015010700203520002d0207008001eb0076
:100e48000001eb008000eb000000eb0058000700f9
:100e580090002000704088003eff370070408000fe
:100e6800e90f500016003a0040382000b80007008b
:100e7800d140800020408000808f50002cff31003e
:100e8800e140800030408000808f50002aff310010
:100e98000000eb00000d88000000eb00500d8800fa
:100ea8008001eb000001eb008000eb000000eb008c
:100eb8003f000700a00020007040880025ff370091
:100ec80070408000ea0f500006003a00c11220006e
:100ed80080252000d2000700b00020007040880064
:100ee8001cff370070408000eb0f500016003a00de
:100ef8004038200096000700d14080002040800044
:100f0800808f50000eff3100e140800030408000ab
:100f1800808f50000cff31000000eb00000d8800ae
:100f28000000eb00500d88008001eb000001eb0091
:100f38008000eb000000eb001d000700c00020004f
:100f48007040880003ff370070408000ec0f5000ad
:100f5800fffe3a0061092000f03f200097000700db
:100f6800704080000000e800704088000000000029
:100f7800ffff37000000fa00b04080006009b100b0
:100f880000408800c04080006009b100104088001f
:100f9800d0408000a00ab10020408800e0408000d6
:100fa800a00ab100304088000080fa000000060066
:100fb8000800fa00000f780011079800220798002f
:100fc800330798001e0078000040780061406000f8
:100fd8000080fb00610060004d00dd0062168000ab
:100fe800f1ff2d008100610000807000601688000c
:100ff8001e00900000407800614060000080fb0007
:10100800610060004c00dd0062168000f1ff2e00d8
:101018008100610000807000601688002e0090003a
:1010280000407800614060000080fb004f00dd0058
:1010380062168000f1ff27008100610000807000c7
:10104800601688003e009000004078006140600013
:101058000080fb00610060004e00dd006216800029
:10106800f1ff2b008100610000807000601688008d
:101078000080fa00000006000400fa00000f780063
:10108800110798001e007800004078006140600059
:101098000080fb00610060004500dd0062168000f2
:1010a800f1fd2f008100610000807000601688004b
:1010b8001e00900000407800614060000080fb0046
:1010c800610060004400dd0022168000f1fe2f0060
:1010d8008100610000807000201688000080fa00fe
:1010e800000006000200fa00000f78001e007800d9
:1010f800000d88001e007800500d8800b140800067
:1011080000408000808f5000030031001e007800ee
:101118005d0007000c003700c140800010408000cf
:10112800808f5000030031001e0078006300070024
:10113800050037008001eb0012002000110020009c
:101148000000eb009aff07000080fa00000006008c
:101158000200fa00000f78001e007800500d880089
:101168001e007800000d8800d140800020408000db
:10117800808f5000030031001e0078004f000700e8
:101188000c003700e140800030408000808f500024
:10119800030031001e0078003b00070005003700ff
:1011a800130020000001eb008000eb00100020007d
:1011b8007fff07000080fa00000006000400fa0024
:1011c800000f7800110798001e007800000d8800b5
:1011d8001e007800500d88008001eb0012002000ee
:1011e800110020000000eb0071ff07001e009000b6
:1011f8003f0107000000eb00000d88000000eb0035
:10120800500d88008001eb000001eb008000eb002e
:101218000000eb0066ff07000080fa0000000600ef
:101228000400fa00000f7800110798001e007800eb
:10123800000d8800c1f92f001e804000500d880065
:10124800130020000001eb008000eb0010002000dc
:1012580057ff07001e009000250107000000eb0063
:10126800000d88000000eb00500d88008001eb00a5
:101278000001eb008000eb000000eb004cff0700d2
:101288000080fa00000006000200fa00000f780053
:101298001e007800000d88001e007800500d8800a0
:1012a8008001eb00120020008000eb0010002000fd
:1012b8003fff07000080fa00000006000200fa0065
:1012c800000f78001e007800000d88001e007800ce
:1012d800500d8800130020000001eb0011002000d1
:1012e8000000eb0032ff07000080fa000000060053
:1012f8000200fa00000f7800b14080000040800032
:10130800808f5000030036001e007800deff0700c3
:1013180012003700b140800000408000808f5000ec
:101328000e00310040062000f10007000000eb002d
:10133800000d88000000eb00500d88008001eb00d4
:101348000001eb008000eb000000eb0018ff070035
:10135800704080000000e800704088000080fa00bb
:10136800000006000200fa00000f7800c14080006b
:1013780010408000808f5000030036001e00780067
:10138800ceff070012003700c140800010408000e7
:10139800808f50000e00310040062000d400070066
:1013a8000000eb00000d88000000eb00500d8800e5
:1013b8008001eb000001eb008000eb000000eb0077
:1013c800fbfe0700704080000000e80070408800c5
:1013d8000080fa00000006000000fa00f03f20003c
:1013e800000d8800f03f2000500d88008001eb00c0
:1013f80012002000110020000000eb00ecfe0700a6
:1014080000192000ba0007000000eb00000d88005a
:101418000000eb00500d88008001eb000001eb009c
:101428008000eb000000eb00e1fe07000080fa00fe
:10143800000006000000fa00f03f2000000d8800c0
:10144800f03f2000500d8800130020000001eb0041
:101458008000eb0010002000d5fe0700401f200090
:10146800a30007000000eb00000d88000000eb005f
:10147800500d88008001eb000001eb008000eb00bc
:101488000000eb00cafe07000080fa00000006001a
:101498000000fa00b140800000408000808f5000ba
:1014a8000b003100c140800010408000808f500048
:1014b80007003100404080000000e80040408800fc
:1014c800dcff0700704080000000e80070408800e2
:1014d8000080fa00000006000000fa00d1408000f9
:1014e80020408000808f50000b003100e1408000d8
:1014f80030408000808f500007003100404080005d
:101508000000e80040408800b3ff070070408000fa
:101518000000e800704088000080fa000000060023
:101528000000fa00501680004900de0061406000ab
:101538000080fb00804088001a003700604080006f
:101548000000e8006040880061408000800c2000b6
:10155800808f500017003c00501680004900de00c4
:10156800614060000080fb00804088000019200076
:10157800000d880000192000500d88008001eb0044
:1015880012002000110020000000eb0088fe070078
:101598008000eb0010002000b7fe0700a00020002c
:1015a8005300070080408000e10f5000e3ff320045
:1015b80001003700000000000000eb0060408800d8
:1015c800800c20004a0007008000eb000000eb00c0
:1015d800a9fe07000000eb00000d88000000eb00ea
:1015e800500d88008001eb000001eb008000eb004b
:1015f8000000eb006efe0700704080000000e8006d
:10160800704088000080fa00000006000200fa001e
:10161800000f7800110020000000eb0096fe070084
:101628001e007800320007008000eb000000eb008d
:1016380091fe0700704080000000e80070408800bc
:101648000080fa00000006000000fa00c05d2000db
:10165800270007000000eb00401a88004023a8007c
:1016680050002000220007004023a90000000000cd
:10167800001a800061006000e00f5000fcff32009b
:1016880000188000f0408800f1408000502c2000b5
:10169800808f500003003e0010002000904088001a
:1016a80011003700f1408000502c2000808f50003e
:1016b80007003600f1408000f02c2000808f500099
:1016c80003003e001000200090408800060037000c
:1016d800f1408000f02c2000808f5000020036007e
:1016e80010002000904088000080fa0000000600ea
:1016f8000200fa00000f780002003700a00f09006e
:10170800000000001e00ea001e0070004f00de000e
:10171800004078001e0fe900e04f5000f7ff3a0044
:081728000080fa000000060039
:020000040000fa
:10173000160800000a000000000000000008000079
:101740001600000002000000000000000000000081
:101750000000000000000000000000000000000089
:0c1760000000000000000000000000007d
:020000040000fa
:0200000401f009
:04000c0058ff000099
:020000040000fa
:0200000401f009
:04001000fbff0000f2
:020000040000fa
:0200000401f009
:040014005fff00008a
:020000040000fa
:0200000401f009
:04001c00ffff0000e2
:020000040000fa
:0200000401f009
:040020007fff00005e
:00000001FF
